{
  "contractName": "product",
  "abi": [
    {
      "constant": true,
      "inputs": [
        {
          "internalType": "uint256",
          "name": "",
          "type": "uint256"
        }
      ],
      "name": "productItems",
      "outputs": [
        {
          "internalType": "uint256",
          "name": "productId",
          "type": "uint256"
        },
        {
          "internalType": "bytes32",
          "name": "productSN",
          "type": "bytes32"
        },
        {
          "internalType": "bytes32",
          "name": "productName",
          "type": "bytes32"
        },
        {
          "internalType": "bytes32",
          "name": "productBrand",
          "type": "bytes32"
        },
        {
          "internalType": "uint256",
          "name": "productPrice",
          "type": "uint256"
        },
        {
          "internalType": "bytes32",
          "name": "productStatus",
          "type": "bytes32"
        }
      ],
      "payable": false,
      "stateMutability": "view",
      "type": "function"
    },
    {
      "constant": true,
      "inputs": [
        {
          "internalType": "bytes32",
          "name": "",
          "type": "bytes32"
        }
      ],
      "name": "productMap",
      "outputs": [
        {
          "internalType": "uint256",
          "name": "",
          "type": "uint256"
        }
      ],
      "payable": false,
      "stateMutability": "view",
      "type": "function"
    },
    {
      "constant": true,
      "inputs": [
        {
          "internalType": "bytes32",
          "name": "",
          "type": "bytes32"
        }
      ],
      "name": "productsForSale",
      "outputs": [
        {
          "internalType": "bytes32",
          "name": "",
          "type": "bytes32"
        }
      ],
      "payable": false,
      "stateMutability": "view",
      "type": "function"
    },
    {
      "constant": true,
      "inputs": [
        {
          "internalType": "bytes32",
          "name": "",
          "type": "bytes32"
        }
      ],
      "name": "productsManufactured",
      "outputs": [
        {
          "internalType": "bytes32",
          "name": "",
          "type": "bytes32"
        }
      ],
      "payable": false,
      "stateMutability": "view",
      "type": "function"
    },
    {
      "constant": true,
      "inputs": [
        {
          "internalType": "bytes32",
          "name": "",
          "type": "bytes32"
        }
      ],
      "name": "productsSold",
      "outputs": [
        {
          "internalType": "bytes32",
          "name": "",
          "type": "bytes32"
        }
      ],
      "payable": false,
      "stateMutability": "view",
      "type": "function"
    },
    {
      "constant": true,
      "inputs": [
        {
          "internalType": "bytes32",
          "name": "",
          "type": "bytes32"
        },
        {
          "internalType": "uint256",
          "name": "",
          "type": "uint256"
        }
      ],
      "name": "productsWithConsumer",
      "outputs": [
        {
          "internalType": "bytes32",
          "name": "",
          "type": "bytes32"
        }
      ],
      "payable": false,
      "stateMutability": "view",
      "type": "function"
    },
    {
      "constant": true,
      "inputs": [
        {
          "internalType": "bytes32",
          "name": "",
          "type": "bytes32"
        },
        {
          "internalType": "uint256",
          "name": "",
          "type": "uint256"
        }
      ],
      "name": "productsWithSeller",
      "outputs": [
        {
          "internalType": "bytes32",
          "name": "",
          "type": "bytes32"
        }
      ],
      "payable": false,
      "stateMutability": "view",
      "type": "function"
    },
    {
      "constant": true,
      "inputs": [
        {
          "internalType": "uint256",
          "name": "",
          "type": "uint256"
        }
      ],
      "name": "sellers",
      "outputs": [
        {
          "internalType": "uint256",
          "name": "sellerId",
          "type": "uint256"
        },
        {
          "internalType": "bytes32",
          "name": "sellerName",
          "type": "bytes32"
        },
        {
          "internalType": "bytes32",
          "name": "sellerBrand",
          "type": "bytes32"
        },
        {
          "internalType": "bytes32",
          "name": "sellerCode",
          "type": "bytes32"
        },
        {
          "internalType": "uint256",
          "name": "sellerNum",
          "type": "uint256"
        },
        {
          "internalType": "bytes32",
          "name": "sellerManager",
          "type": "bytes32"
        },
        {
          "internalType": "bytes32",
          "name": "sellerAddress",
          "type": "bytes32"
        }
      ],
      "payable": false,
      "stateMutability": "view",
      "type": "function"
    },
    {
      "constant": true,
      "inputs": [
        {
          "internalType": "bytes32",
          "name": "",
          "type": "bytes32"
        },
        {
          "internalType": "uint256",
          "name": "",
          "type": "uint256"
        }
      ],
      "name": "sellersWithManufacturer",
      "outputs": [
        {
          "internalType": "bytes32",
          "name": "",
          "type": "bytes32"
        }
      ],
      "payable": false,
      "stateMutability": "view",
      "type": "function"
    },
    {
      "constant": false,
      "inputs": [
        {
          "internalType": "bytes32",
          "name": "_manufacturerId",
          "type": "bytes32"
        },
        {
          "internalType": "bytes32",
          "name": "_sellerName",
          "type": "bytes32"
        },
        {
          "internalType": "bytes32",
          "name": "_sellerBrand",
          "type": "bytes32"
        },
        {
          "internalType": "bytes32",
          "name": "_sellerCode",
          "type": "bytes32"
        },
        {
          "internalType": "uint256",
          "name": "_sellerNum",
          "type": "uint256"
        },
        {
          "internalType": "bytes32",
          "name": "_sellerManager",
          "type": "bytes32"
        },
        {
          "internalType": "bytes32",
          "name": "_sellerAddress",
          "type": "bytes32"
        }
      ],
      "name": "addSeller",
      "outputs": [],
      "payable": false,
      "stateMutability": "nonpayable",
      "type": "function"
    },
    {
      "constant": true,
      "inputs": [],
      "name": "viewSellers",
      "outputs": [
        {
          "internalType": "uint256[]",
          "name": "",
          "type": "uint256[]"
        },
        {
          "internalType": "bytes32[]",
          "name": "",
          "type": "bytes32[]"
        },
        {
          "internalType": "bytes32[]",
          "name": "",
          "type": "bytes32[]"
        },
        {
          "internalType": "bytes32[]",
          "name": "",
          "type": "bytes32[]"
        },
        {
          "internalType": "uint256[]",
          "name": "",
          "type": "uint256[]"
        },
        {
          "internalType": "bytes32[]",
          "name": "",
          "type": "bytes32[]"
        },
        {
          "internalType": "bytes32[]",
          "name": "",
          "type": "bytes32[]"
        }
      ],
      "payable": false,
      "stateMutability": "view",
      "type": "function"
    },
    {
      "constant": false,
      "inputs": [
        {
          "internalType": "bytes32",
          "name": "_manufactuerID",
          "type": "bytes32"
        },
        {
          "internalType": "bytes32",
          "name": "_productName",
          "type": "bytes32"
        },
        {
          "internalType": "bytes32",
          "name": "_productSN",
          "type": "bytes32"
        },
        {
          "internalType": "bytes32",
          "name": "_productBrand",
          "type": "bytes32"
        },
        {
          "internalType": "uint256",
          "name": "_productPrice",
          "type": "uint256"
        }
      ],
      "name": "addProduct",
      "outputs": [],
      "payable": false,
      "stateMutability": "nonpayable",
      "type": "function"
    },
    {
      "constant": true,
      "inputs": [],
      "name": "viewProductItems",
      "outputs": [
        {
          "internalType": "uint256[]",
          "name": "",
          "type": "uint256[]"
        },
        {
          "internalType": "bytes32[]",
          "name": "",
          "type": "bytes32[]"
        },
        {
          "internalType": "bytes32[]",
          "name": "",
          "type": "bytes32[]"
        },
        {
          "internalType": "bytes32[]",
          "name": "",
          "type": "bytes32[]"
        },
        {
          "internalType": "uint256[]",
          "name": "",
          "type": "uint256[]"
        },
        {
          "internalType": "bytes32[]",
          "name": "",
          "type": "bytes32[]"
        }
      ],
      "payable": false,
      "stateMutability": "view",
      "type": "function"
    },
    {
      "constant": false,
      "inputs": [
        {
          "internalType": "bytes32",
          "name": "_productSN",
          "type": "bytes32"
        },
        {
          "internalType": "bytes32",
          "name": "_sellerCode",
          "type": "bytes32"
        }
      ],
      "name": "manufacturerSellProduct",
      "outputs": [],
      "payable": false,
      "stateMutability": "nonpayable",
      "type": "function"
    },
    {
      "constant": false,
      "inputs": [
        {
          "internalType": "bytes32",
          "name": "_productSN",
          "type": "bytes32"
        },
        {
          "internalType": "bytes32",
          "name": "_consumerCode",
          "type": "bytes32"
        }
      ],
      "name": "sellerSellProduct",
      "outputs": [],
      "payable": false,
      "stateMutability": "nonpayable",
      "type": "function"
    },
    {
      "constant": true,
      "inputs": [
        {
          "internalType": "bytes32",
          "name": "_sellerCode",
          "type": "bytes32"
        }
      ],
      "name": "queryProductsList",
      "outputs": [
        {
          "internalType": "uint256[]",
          "name": "",
          "type": "uint256[]"
        },
        {
          "internalType": "bytes32[]",
          "name": "",
          "type": "bytes32[]"
        },
        {
          "internalType": "bytes32[]",
          "name": "",
          "type": "bytes32[]"
        },
        {
          "internalType": "bytes32[]",
          "name": "",
          "type": "bytes32[]"
        },
        {
          "internalType": "uint256[]",
          "name": "",
          "type": "uint256[]"
        },
        {
          "internalType": "bytes32[]",
          "name": "",
          "type": "bytes32[]"
        }
      ],
      "payable": false,
      "stateMutability": "view",
      "type": "function"
    },
    {
      "constant": true,
      "inputs": [
        {
          "internalType": "bytes32",
          "name": "_manufacturerCode",
          "type": "bytes32"
        }
      ],
      "name": "querySellersList",
      "outputs": [
        {
          "internalType": "uint256[]",
          "name": "",
          "type": "uint256[]"
        },
        {
          "internalType": "bytes32[]",
          "name": "",
          "type": "bytes32[]"
        },
        {
          "internalType": "bytes32[]",
          "name": "",
          "type": "bytes32[]"
        },
        {
          "internalType": "bytes32[]",
          "name": "",
          "type": "bytes32[]"
        },
        {
          "internalType": "uint256[]",
          "name": "",
          "type": "uint256[]"
        },
        {
          "internalType": "bytes32[]",
          "name": "",
          "type": "bytes32[]"
        },
        {
          "internalType": "bytes32[]",
          "name": "",
          "type": "bytes32[]"
        }
      ],
      "payable": false,
      "stateMutability": "view",
      "type": "function"
    },
    {
      "constant": true,
      "inputs": [
        {
          "internalType": "bytes32",
          "name": "_consumerCode",
          "type": "bytes32"
        }
      ],
      "name": "getPurchaseHistory",
      "outputs": [
        {
          "internalType": "bytes32[]",
          "name": "",
          "type": "bytes32[]"
        },
        {
          "internalType": "bytes32[]",
          "name": "",
          "type": "bytes32[]"
        },
        {
          "internalType": "bytes32[]",
          "name": "",
          "type": "bytes32[]"
        }
      ],
      "payable": false,
      "stateMutability": "view",
      "type": "function"
    },
    {
      "constant": true,
      "inputs": [
        {
          "internalType": "bytes32",
          "name": "_productSN",
          "type": "bytes32"
        },
        {
          "internalType": "bytes32",
          "name": "_consumerCode",
          "type": "bytes32"
        }
      ],
      "name": "verifyProduct",
      "outputs": [
        {
          "internalType": "bool",
          "name": "",
          "type": "bool"
        }
      ],
      "payable": false,
      "stateMutability": "view",
      "type": "function"
    }
  ],
  "bytecode": "0x608060405234801561001057600080fd5b50612280806100206000396000f3fe608060405234801561001057600080fd5b50600436106101215760003560e01c80639316bff0116100ad578063c20805b411610071578063c20805b414610cc9578063caaf275114610d0b578063cd4f6a2e14610d70578063cee26ed514610db2578063e262113f14610e1e57610121565b80639316bff014610a9a5780639cd777dd14610af05780639ea4695d14610b3c578063a090f47c14610c4f578063b0c7ad9414610c9157610121565b80631b3658c8116100f45780631b3658c814610771578063344b5d51146107db5780634b9930011461082b5780638577a7011461087757806392162bc4146108af57610121565b8063032f95e614610126578063100b6ba214610335578063130aa81f146103775780631836bd4b146105aa575b600080fd5b61012e610e6a565b604051808060200180602001806020018060200180602001806020018060200188810388528f818151815260200191508051906020019060200280838360005b8381101561018957808201518184015260208101905061016e565b5050505090500188810387528e818151815260200191508051906020019060200280838360005b838110156101cb5780820151818401526020810190506101b0565b5050505090500188810386528d818151815260200191508051906020019060200280838360005b8381101561020d5780820151818401526020810190506101f2565b5050505090500188810385528c818151815260200191508051906020019060200280838360005b8381101561024f578082015181840152602081019050610234565b5050505090500188810384528b818151815260200191508051906020019060200280838360005b83811015610291578082015181840152602081019050610276565b5050505090500188810383528a818151815260200191508051906020019060200280838360005b838110156102d35780820151818401526020810190506102b8565b50505050905001888103825289818151815260200191508051906020019060200280838360005b838110156103155780820151818401526020810190506102fa565b505050509050019e50505050505050505050505050505060405180910390f35b6103616004803603602081101561034b57600080fd5b810190808035906020019092919050505061117a565b6040518082815260200191505060405180910390f35b6103a36004803603602081101561038d57600080fd5b8101908080359060200190929190505050611192565b604051808060200180602001806020018060200180602001806020018060200188810388528f818151815260200191508051906020019060200280838360005b838110156103fe5780820151818401526020810190506103e3565b5050505090500188810387528e818151815260200191508051906020019060200280838360005b83811015610440578082015181840152602081019050610425565b5050505090500188810386528d818151815260200191508051906020019060200280838360005b83811015610482578082015181840152602081019050610467565b5050505090500188810385528c818151815260200191508051906020019060200280838360005b838110156104c45780820151818401526020810190506104a9565b5050505090500188810384528b818151815260200191508051906020019060200280838360005b838110156105065780820151818401526020810190506104eb565b5050505090500188810383528a818151815260200191508051906020019060200280838360005b8381101561054857808201518184015260208101905061052d565b50505050905001888103825289818151815260200191508051906020019060200280838360005b8381101561058a57808201518184015260208101905061056f565b505050509050019e50505050505050505050505050505060405180910390f35b6105b261156c565b6040518080602001806020018060200180602001806020018060200187810387528d818151815260200191508051906020019060200280838360005b838110156106095780820151818401526020810190506105ee565b5050505090500187810386528c818151815260200191508051906020019060200280838360005b8381101561064b578082015181840152602081019050610630565b5050505090500187810385528b818151815260200191508051906020019060200280838360005b8381101561068d578082015181840152602081019050610672565b5050505090500187810384528a818151815260200191508051906020019060200280838360005b838110156106cf5780820151818401526020810190506106b4565b50505050905001878103835289818151815260200191508051906020019060200280838360005b838110156107115780820151818401526020810190506106f6565b50505050905001878103825288818151815260200191508051906020019060200280838360005b83811015610753578082015181840152602081019050610738565b505050509050019c5050505050505050505050505060405180910390f35b6107d9600480360360e081101561078757600080fd5b8101908080359060200190929190803590602001909291908035906020019092919080359060200190929190803590602001909291908035906020019092919080359060200190929190505050611811565b005b610811600480360360408110156107f157600080fd5b8101908080359060200190929190803590602001909291905050506118fa565b604051808215151515815260200191505060405180910390f35b6108616004803603604081101561084157600080fd5b81019080803590602001909291908035906020019092919050505061197c565b6040518082815260200191505060405180910390f35b6108ad6004803603604081101561088d57600080fd5b8101908080359060200190929190803590602001909291905050506119aa565b005b6108db600480360360208110156108c557600080fd5b8101908080359060200190929190505050611a03565b6040518080602001806020018060200180602001806020018060200187810387528d818151815260200191508051906020019060200280838360005b83811015610932578082015181840152602081019050610917565b5050505090500187810386528c818151815260200191508051906020019060200280838360005b83811015610974578082015181840152602081019050610959565b5050505090500187810385528b818151815260200191508051906020019060200280838360005b838110156109b657808201518184015260208101905061099b565b5050505090500187810384528a818151815260200191508051906020019060200280838360005b838110156109f85780820151818401526020810190506109dd565b50505050905001878103835289818151815260200191508051906020019060200280838360005b83811015610a3a578082015181840152602081019050610a1f565b50505050905001878103825288818151815260200191508051906020019060200280838360005b83811015610a7c578082015181840152602081019050610a61565b505050509050019c5050505050505050505050505060405180910390f35b610aee600480360360a0811015610ab057600080fd5b810190808035906020019092919080359060200190929190803590602001909291908035906020019092919080359060200190929190505050611d6d565b005b610b2660048036036040811015610b0657600080fd5b810190808035906020019092919080359060200190929190505050611e5b565b6040518082815260200191505060405180910390f35b610b6860048036036020811015610b5257600080fd5b8101908080359060200190929190505050611e89565b60405180806020018060200180602001848103845287818151815260200191508051906020019060200280838360005b83811015610bb3578082015181840152602081019050610b98565b50505050905001848103835286818151815260200191508051906020019060200280838360005b83811015610bf5578082015181840152602081019050610bda565b50505050905001848103825285818151815260200191508051906020019060200280838360005b83811015610c37578082015181840152602081019050610c1c565b50505050905001965050505050505060405180910390f35b610c7b60048036036020811015610c6557600080fd5b810190808035906020019092919050505061200b565b6040518082815260200191505060405180910390f35b610cc760048036036040811015610ca757600080fd5b810190808035906020019092919080359060200190929190505050612023565b005b610cf560048036036020811015610cdf57600080fd5b810190808035906020019092919050505061214e565b6040518082815260200191505060405180910390f35b610d3760048036036020811015610d2157600080fd5b8101908080359060200190929190505050612166565b60405180878152602001868152602001858152602001848152602001838152602001828152602001965050505050505060405180910390f35b610d9c60048036036020811015610d8657600080fd5b81019080803590602001909291905050506121a2565b6040518082815260200191505060405180910390f35b610dde60048036036020811015610dc857600080fd5b81019080803590602001909291905050506121ba565b6040518088815260200187815260200186815260200185815260200184815260200183815260200182815260200197505050505050505060405180910390f35b610e5460048036036040811015610e3457600080fd5b8101908080359060200190929190803590602001909291905050506121fc565b6040518082815260200191505060405180910390f35b606080606080606080606080600054604051908082528060200260200182016040528015610ea75781602001602082028038833980820191505090505b5090506060600054604051908082528060200260200182016040528015610edd5781602001602082028038833980820191505090505b5090506060600054604051908082528060200260200182016040528015610f135781602001602082028038833980820191505090505b5090506060600054604051908082528060200260200182016040528015610f495781602001602082028038833980820191505090505b5090506060600054604051908082528060200260200182016040528015610f7f5781602001602082028038833980820191505090505b5090506060600054604051908082528060200260200182016040528015610fb55781602001602082028038833980820191505090505b5090506060600054604051908082528060200260200182016040528015610feb5781602001602082028038833980820191505090505b50905060008090505b60005481101561115457600260008281526020019081526020016000206000015488828151811061102157fe5b602002602001018181525050600260008281526020019081526020016000206001015487828151811061105057fe5b602002602001018181525050600260008281526020019081526020016000206002015486828151811061107f57fe5b60200260200101818152505060026000828152602001908152602001600020600301548582815181106110ae57fe5b60200260200101818152505060026000828152602001908152602001600020600401548482815181106110dd57fe5b602002602001018181525050600260008281526020019081526020016000206005015483828151811061110c57fe5b602002602001018181525050600260008281526020019081526020016000206006015482828151811061113b57fe5b6020026020010181815250508080600101915050610ff4565b50868686868686869d509d509d509d509d509d509d505050505050505090919293949596565b60046020528060005260406000206000915090505481565b606080606080606080606080600a60008a81526020019081526020016000208054806020026020016040519081016040528092919081815260200182805480156111fb57602002820191906000526020600020905b8154815260200190600101908083116111e7575b505050505090506000809050606060005460405190808252806020026020018201604052801561123a5781602001602082028038833980820191505090505b50905060606000546040519080825280602002602001820160405280156112705781602001602082028038833980820191505090505b50905060606000546040519080825280602002602001820160405280156112a65781602001602082028038833980820191505090505b50905060606000546040519080825280602002602001820160405280156112dc5781602001602082028038833980820191505090505b50905060606000546040519080825280602002602001820160405280156113125781602001602082028038833980820191505090505b50905060606000546040519080825280602002602001820160405280156113485781602001602082028038833980820191505090505b509050606060005460405190808252806020026020018201604052801561137e5781602001602082028038833980820191505090505b50905060008090505b6000548110156115425760008090505b8a51811015611534578a81815181106113ac57fe5b602002602001015160026000848152602001908152602001600020600301541415611527576002600083815260200190815260200160002060000154898b815181106113f457fe5b6020026020010181815250506002600083815260200190815260200160002060010154888b8151811061142357fe5b6020026020010181815250506002600083815260200190815260200160002060020154878b8151811061145257fe5b6020026020010181815250506002600083815260200190815260200160002060030154868b8151811061148157fe5b6020026020010181815250506002600083815260200190815260200160002060040154858b815181106114b057fe5b6020026020010181815250506002600083815260200190815260200160002060050154848b815181106114df57fe5b6020026020010181815250506002600083815260200190815260200160002060060154838b8151811061150e57fe5b60200260200101818152505089806001019a5050611534565b8080600101915050611397565b508080600101915050611387565b50868686868686869f509f509f509f509f509f509f50505050505050505050919395979092949650565b60608060608060608060606001546040519080825280602002602001820160405280156115a85781602001602082028038833980820191505090505b50905060606001546040519080825280602002602001820160405280156115de5781602001602082028038833980820191505090505b50905060606001546040519080825280602002602001820160405280156116145781602001602082028038833980820191505090505b509050606060015460405190808252806020026020018201604052801561164a5781602001602082028038833980820191505090505b50905060606001546040519080825280602002602001820160405280156116805781602001602082028038833980820191505090505b50905060606001546040519080825280602002602001820160405280156116b65781602001602082028038833980820191505090505b50905060008090505b6001548110156117f05760036000828152602001908152602001600020600001548782815181106116ec57fe5b602002602001018181525050600360008281526020019081526020016000206001015486828151811061171b57fe5b602002602001018181525050600360008281526020019081526020016000206002015485828151811061174a57fe5b602002602001018181525050600360008281526020019081526020016000206003015484828151811061177957fe5b60200260200101818152505060036000828152602001908152602001600020600401548382815181106117a857fe5b60200260200101818152505060036000828152602001908152602001600020600501548282815181106117d757fe5b60200260200101818152505080806001019150506116bf565b508585858585859b509b509b509b509b509b50505050505050909192939495565b6040518060e001604052806000548152602001878152602001868152602001858152602001848152602001838152602001828152506002600080548152602001908152602001600020600082015181600001556020820151816001015560408201518160020155606082015181600301556080820151816004015560a0820151816005015560c082015181600601559050506000808154809291906001019190505550600a600088815260200190815260200160002084908060018154018082558091505090600182039060005260206000200160009091929091909150555050505050505050565b600080600760008581526020019081526020016000205490506000602060ff1611611970576040517f08c379a000000000000000000000000000000000000000000000000000000000815260040180806020018281038252602181526020018061222b6021913960400191505060405180910390fd5b82811491505092915050565b6008602052816000526040600020818154811061199557fe5b90600052602060002001600091509150505481565b600860008281526020019081526020016000208290806001815401808255809150509060018203906000526020600020016000909192909190915055508060066000848152602001908152602001600020819055505050565b606080606080606080606060086000898152602001908152602001600020805480602002602001604051908101604052809291908181526020018280548015611a6b57602002820191906000526020600020905b815481526020019060010190808311611a57575b5050505050905060008090506060600154604051908082528060200260200182016040528015611aaa5781602001602082028038833980820191505090505b5090506060600154604051908082528060200260200182016040528015611ae05781602001602082028038833980820191505090505b5090506060600154604051908082528060200260200182016040528015611b165781602001602082028038833980820191505090505b5090506060600154604051908082528060200260200182016040528015611b4c5781602001602082028038833980820191505090505b5090506060600154604051908082528060200260200182016040528015611b825781602001602082028038833980820191505090505b5090506060600154604051908082528060200260200182016040528015611bb85781602001602082028038833980820191505090505b50905060008090505b600154811015611d495760008090505b8951811015611d3b57898181518110611be657fe5b602002602001015160036000848152602001908152602001600020600101541415611d2e576003600083815260200190815260200160002060000154888a81518110611c2e57fe5b6020026020010181815250506003600083815260200190815260200160002060010154878a81518110611c5d57fe5b6020026020010181815250506003600083815260200190815260200160002060020154868a81518110611c8c57fe5b6020026020010181815250506003600083815260200190815260200160002060030154858a81518110611cbb57fe5b6020026020010181815250506003600083815260200190815260200160002060040154848a81518110611cea57fe5b6020026020010181815250506003600083815260200190815260200160002060050154838a81518110611d1957fe5b60200260200101818152505088806001019950505b8080600101915050611bd1565b508080600101915050611bc1565b508585858585859d509d509d509d509d509d50505050505050505091939550919395565b6040518060c0016040528060015481526020018481526020018581526020018381526020018281526020017f417661696c61626c650000000000000000000000000000000000000000000000815250600360006001548152602001908152602001600020600082015181600001556020820151816001015560408201518160020155606082015181600301556080820151816004015560a0820151816005015590505060015460046000858152602001908152602001600020819055506001600081548092919060010191905055508460056000858152602001908152602001600020819055505050505050565b60096020528160005260406000208181548110611e7457fe5b90600052602060002001600091509150505481565b60608060608060096000868152602001908152602001600020805480602002602001604051908101604052809291908181526020018280548015611eec57602002820191906000526020600020905b815481526020019060010190808311611ed8575b5050505050905060608151604051908082528060200260200182016040528015611f255781602001602082028038833980820191505090505b50905060608251604051908082528060200260200182016040528015611f5a5781602001602082028038833980820191505090505b50905060008090505b8351811015611ff75760066000858381518110611f7c57fe5b6020026020010151815260200190815260200160002054838281518110611f9f57fe5b60200260200101818152505060056000858381518110611fbb57fe5b6020026020010151815260200190815260200160002054828281518110611fde57fe5b6020026020010181815250508080600101915050611f63565b508282829550955095505050509193909250565b60066020528060005260406000206000915090505481565b60008060008090506000600154111561207557600091505b600154821015612074578460036000848152602001908152602001600020600101541415612067578190505b818060010192505061203b565b5b600360008281526020019081526020016000206005015492507f417661696c61626c650000000000000000000000000000000000000000000000831415612147577f4e410000000000000000000000000000000000000000000000000000000000006003600083815260200190815260200160002060050181905550600960008581526020019081526020016000208590806001815401808255809150509060018203906000526020600020016000909192909190915055508360076000878152602001908152602001600020819055505b5050505050565b60056020528060005260406000206000915090505481565b60036020528060005260406000206000915090508060000154908060010154908060020154908060030154908060040154908060050154905086565b60076020528060005260406000206000915090505481565b60026020528060005260406000206000915090508060000154908060010154908060020154908060030154908060040154908060050154908060060154905087565b600a602052816000526040600020818154811061221557fe5b9060005260206000200160009150915050548156fe50726f64756374206e6f7420666f756e6420696e20736f6c64207265636f726473a265627a7a7231582098cee3dd0c9dd8fbf9b54a5b9df8752bb8b00d9ce0d884320b1292f24940758a64736f6c63430005100032",
  "source": "pragma solidity ^0.5.16;\r\n\r\ncontract product {\r\n\r\n    uint256 sellerCount;\r\n    uint256 productCount;\r\n\r\n    struct seller{\r\n        uint256 sellerId;\r\n        bytes32 sellerName;\r\n        bytes32 sellerBrand;\r\n        bytes32 sellerCode;\r\n        uint256 sellerNum;\r\n        bytes32 sellerManager;\r\n        bytes32 sellerAddress;\r\n    }\r\n    mapping(uint=>seller) public sellers;\r\n\r\n    struct productItem{\r\n        uint256 productId;\r\n        bytes32 productSN;\r\n        bytes32 productName;\r\n        bytes32 productBrand;\r\n        uint256 productPrice;\r\n        bytes32 productStatus;\r\n    }\r\n\r\n    mapping(uint256=>productItem) public productItems;\r\n    mapping(bytes32=>uint256) public productMap;\r\n    mapping(bytes32=>bytes32) public productsManufactured;\r\n    mapping(bytes32=>bytes32) public productsForSale;\r\n    mapping(bytes32=>bytes32) public productsSold;\r\n    mapping(bytes32=>bytes32[]) public productsWithSeller;\r\n    mapping(bytes32=>bytes32[]) public productsWithConsumer;\r\n    mapping(bytes32=>bytes32[]) public sellersWithManufacturer;\r\n\r\n\r\n    //SELLER SECTION\r\n\r\n    function addSeller(bytes32 _manufacturerId, bytes32 _sellerName, bytes32 _sellerBrand, bytes32 _sellerCode,\r\n    uint256 _sellerNum, bytes32 _sellerManager, bytes32 _sellerAddress) public{\r\n        sellers[sellerCount] = seller(sellerCount, _sellerName, _sellerBrand, _sellerCode,\r\n        _sellerNum, _sellerManager, _sellerAddress);\r\n        sellerCount++;\r\n\r\n        sellersWithManufacturer[_manufacturerId].push(_sellerCode);\r\n    }\r\n\r\n\r\n    function viewSellers () public view returns(uint256[] memory, bytes32[] memory, bytes32[] memory, bytes32[] memory, uint256[] memory, bytes32[] memory, bytes32[] memory) {\r\n        uint256[] memory ids = new uint256[](sellerCount);\r\n        bytes32[] memory snames = new bytes32[](sellerCount);\r\n        bytes32[] memory sbrands = new bytes32[](sellerCount);\r\n        bytes32[] memory scodes = new bytes32[](sellerCount);\r\n        uint256[] memory snums = new uint256[](sellerCount);\r\n        bytes32[] memory smanagers = new bytes32[](sellerCount);\r\n        bytes32[] memory saddress = new bytes32[](sellerCount);\r\n        \r\n        for(uint i=0; i<sellerCount; i++){\r\n            ids[i] = sellers[i].sellerId;\r\n            snames[i] = sellers[i].sellerName;\r\n            sbrands[i] = sellers[i].sellerBrand;\r\n            scodes[i] = sellers[i].sellerCode;\r\n            snums[i] = sellers[i].sellerNum;\r\n            smanagers[i] = sellers[i].sellerManager;\r\n            saddress[i] = sellers[i].sellerAddress;\r\n        }\r\n        return(ids, snames, sbrands, scodes, snums, smanagers, saddress);\r\n    }\r\n\r\n    //PRODUCT SECTION\r\n\r\n    function addProduct(bytes32 _manufactuerID, bytes32 _productName, bytes32 _productSN, bytes32 _productBrand,\r\n    uint256 _productPrice) public{\r\n        productItems[productCount] = productItem(productCount, _productSN, _productName, _productBrand,\r\n        _productPrice, \"Available\");\r\n        productMap[_productSN] = productCount;\r\n        productCount++;\r\n        productsManufactured[_productSN] = _manufactuerID;\r\n    }\r\n\r\n\r\n    function viewProductItems () public view returns(uint256[] memory, bytes32[] memory, bytes32[] memory, bytes32[] memory, uint256[] memory, bytes32[] memory) {\r\n        uint256[] memory pids = new uint256[](productCount);\r\n        bytes32[] memory pSNs = new bytes32[](productCount);\r\n        bytes32[] memory pnames = new bytes32[](productCount);\r\n        bytes32[] memory pbrands = new bytes32[](productCount);\r\n        uint256[] memory pprices = new uint256[](productCount);\r\n        bytes32[] memory pstatus = new bytes32[](productCount);\r\n        \r\n        for(uint i=0; i<productCount; i++){\r\n            pids[i] = productItems[i].productId;\r\n            pSNs[i] = productItems[i].productSN;\r\n            pnames[i] = productItems[i].productName;\r\n            pbrands[i] = productItems[i].productBrand;\r\n            pprices[i] = productItems[i].productPrice;\r\n            pstatus[i] = productItems[i].productStatus;\r\n        }\r\n        return(pids, pSNs, pnames, pbrands, pprices, pstatus);\r\n    }\r\n\r\n    //SELL Product\r\n\r\n    function manufacturerSellProduct(bytes32 _productSN, bytes32 _sellerCode) public{\r\n        productsWithSeller[_sellerCode].push(_productSN);\r\n        productsForSale[_productSN] = _sellerCode;\r\n\r\n    }\r\n\r\n    function sellerSellProduct(bytes32 _productSN, bytes32 _consumerCode) public{   \r\n        bytes32 pStatus;\r\n        uint256 i;\r\n        uint256 j=0;\r\n\r\n        if(productCount>0) {\r\n            for(i=0;i<productCount;i++) {\r\n                if(productItems[i].productSN == _productSN) {\r\n                    j=i;\r\n                }\r\n            }\r\n        }\r\n\r\n        pStatus = productItems[j].productStatus;\r\n        if(pStatus == \"Available\") {\r\n            productItems[j].productStatus = \"NA\";\r\n            productsWithConsumer[_consumerCode].push(_productSN);\r\n            productsSold[_productSN] = _consumerCode;\r\n        }\r\n\r\n\r\n    }\r\n\r\n\r\n    function queryProductsList(bytes32 _sellerCode) public view returns(uint256[] memory, bytes32[] memory, bytes32[] memory, bytes32[] memory, uint256[] memory, bytes32[] memory){\r\n        bytes32[] memory productSNs = productsWithSeller[_sellerCode];\r\n        uint256 k=0;\r\n\r\n        uint256[] memory pids = new uint256[](productCount);\r\n        bytes32[] memory pSNs = new bytes32[](productCount);\r\n        bytes32[] memory pnames = new bytes32[](productCount);\r\n        bytes32[] memory pbrands = new bytes32[](productCount);\r\n        uint256[] memory pprices = new uint256[](productCount);\r\n        bytes32[] memory pstatus = new bytes32[](productCount);\r\n\r\n        \r\n        for(uint i=0; i<productCount; i++){\r\n            for(uint j=0; j<productSNs.length; j++){\r\n                if(productItems[i].productSN==productSNs[j]){\r\n                    pids[k] = productItems[i].productId;\r\n                    pSNs[k] = productItems[i].productSN;\r\n                    pnames[k] = productItems[i].productName;\r\n                    pbrands[k] = productItems[i].productBrand;\r\n                    pprices[k] = productItems[i].productPrice;\r\n                    pstatus[k] = productItems[i].productStatus;\r\n                    k++;\r\n                }\r\n            }\r\n        }\r\n        return(pids, pSNs, pnames, pbrands, pprices, pstatus);\r\n    }\r\n\r\n    function querySellersList (bytes32 _manufacturerCode) public view returns(uint256[] memory, bytes32[] memory, bytes32[] memory, bytes32[] memory, uint256[] memory, bytes32[] memory, bytes32[] memory) {\r\n        bytes32[] memory sellerCodes = sellersWithManufacturer[_manufacturerCode];\r\n        uint256 k=0;\r\n        uint256[] memory ids = new uint256[](sellerCount);\r\n        bytes32[] memory snames = new bytes32[](sellerCount);\r\n        bytes32[] memory sbrands = new bytes32[](sellerCount);\r\n        bytes32[] memory scodes = new bytes32[](sellerCount);\r\n        uint256[] memory snums = new uint256[](sellerCount);\r\n        bytes32[] memory smanagers = new bytes32[](sellerCount);\r\n        bytes32[] memory saddress = new bytes32[](sellerCount);\r\n        \r\n        for(uint i=0; i<sellerCount; i++){\r\n            for(uint j=0; j<sellerCodes.length; j++){\r\n                if(sellers[i].sellerCode==sellerCodes[j]){\r\n                    ids[k] = sellers[i].sellerId;\r\n                    snames[k] = sellers[i].sellerName;\r\n                    sbrands[k] = sellers[i].sellerBrand;\r\n                    scodes[k] = sellers[i].sellerCode;\r\n                    snums[k] = sellers[i].sellerNum;\r\n                    smanagers[k] = sellers[i].sellerManager;\r\n                    saddress[k] = sellers[i].sellerAddress;\r\n                    k++;\r\n                    break;\r\n               }\r\n            }\r\n        }\r\n\r\n        return(ids, snames, sbrands, scodes, snums, smanagers, saddress);\r\n    }\r\n\r\n    function getPurchaseHistory(bytes32 _consumerCode) public view returns (bytes32[] memory, bytes32[] memory, bytes32[] memory){\r\n        bytes32[] memory productSNs = productsWithConsumer[_consumerCode];\r\n        bytes32[] memory sellerCodes = new bytes32[](productSNs.length);\r\n        bytes32[] memory manufacturerCodes = new bytes32[](productSNs.length);\r\n        for(uint i=0; i<productSNs.length; i++){\r\n            sellerCodes[i] = productsForSale[productSNs[i]];\r\n            manufacturerCodes[i] = productsManufactured[productSNs[i]];\r\n        }\r\n        return (productSNs, sellerCodes, manufacturerCodes);\r\n    }\r\n\r\n    //Verify\r\n\r\n    function verifyProduct(bytes32 _productSN, bytes32 _consumerCode) public view returns (bool) {\r\n    bytes32 storedConsumerCode = productsSold[_productSN];\r\n    require(storedConsumerCode.length > 0, \"Product not found in sold records\");\r\n    return storedConsumerCode == _consumerCode;\r\n}\r\n\r\n}\r\n",
  "sourcePath": "C:\\Users\\nisha\\OneDrive\\Desktop\\Dynamic Driven\\contracts\\product.sol",
  "compiler": {
    "name": "solc",
    "version": "0.5.16+commit.9c3226ce.Emscripten.clang"
  },
  "schemaVersion": "3.4.11",
  "updatedAt": "2025-03-23T16:43:45.952Z",
  "networkType": "ethereum",
  "devdoc": {
    "methods": {}
  },
  "userdoc": {
    "methods": {}
  }
}